:020000020000FC
:1000000000C00FEF0DBF08E00EBF112400273327FB
:100010001CEF1AB9209A219A229A239A249A259A97
:10002000389839983A983B983C98409A419A429A25
:10003000439A449A3D9A459873D07BD069D00E94E8
:1000400026000E9441000E945C00F9CF309B03C053
:10005000319B0CC0089574D0309B01C00895039566
:100060000F705ED0309BFECF6BD0089569D0319B6E
:1000700001C008950A950F7053D0319BFECF60D018
:100080000895339B03C0349B0CC0089559D0339B13
:1000900001C0089533953F704CD0339BFECF50D0B4
:1000A00008954ED0349B01C008953A953F7041D0D9
:1000B000349BFECF45D00895329B01C0089540D0B7
:1000C000329B01C0089505D00ED0329BFECF38D0B0
:1000D0000895102F130F14FD02C0459801C0459AD2
:1000E000412F4F70089515B11F7C242F2370220FCC
:1000F000220F220F220F122B15B91BB11F73242FB1
:100100002C70220F220F220F220F122B1BB90895E1
:10011000459815B11F7C15B91BB11F731BB9089504
:10012000102F1F70110F110F2BB1237C212B2BB916
:10013000089515B1107F232F2F70122B15B9089534
:100140004F935F936F9341E05AE16FEF6A95F1F738
:100150005A95D9F74A95C1F76F915F914F910895DC
:00000001FF
