:020000020000FC
:1000000000C00FEF0DBF08E00EBF112400273327FB
:100010001CE31AB9209A219A229A239A389839987F
:100020003B983C98409A419A439A449A3CD044D099
:100030000E941D000E943800FBCF309B03C0319B03
:100040000CC0089540D0309B01C0089503950F70F7
:100050002AD0309BFECF37D0089535D0319B01C0D8
:1000600008950A950F701FD0319BFECF2CD00895B4
:10007000339B03C0349B0CC0089525D0339B01C033
:10008000089533953F7018D0339BFECF1CD0089550
:100090001AD0349B01C008953A953F700DD0349B1F
:1000A000FECF11D00895102F1F70110F110F2BB11B
:1000B000237C212B2BB9089515B1107F232F2F708E
:1000C000122B15B908954F935F936F9349E052E354
:1000D0006FEF6A95F1F75A95D9F74A95C1F76F9185
:0600E0005F914F910895AD
:00000001FF
